{
  "_format": "hh-sol-artifact-1",
  "contractName": "WavePortal",
  "sourceName": "contracts/WavePortal.sol",
  "abi": [
    {
      "inputs": [],
      "stateMutability": "nonpayable",
      "type": "constructor"
    },
    {
      "inputs": [],
      "name": "getTotalWaves",
      "outputs": [
        {
          "internalType": "uint256",
          "name": "",
          "type": "uint256"
        }
      ],
      "stateMutability": "view",
      "type": "function"
    },
    {
      "inputs": [],
      "name": "totalWaves",
      "outputs": [
        {
          "internalType": "uint256",
          "name": "",
          "type": "uint256"
        }
      ],
      "stateMutability": "view",
      "type": "function"
    },
    {
      "inputs": [
        {
          "internalType": "string",
          "name": "message",
          "type": "string"
        }
      ],
      "name": "wave",
      "outputs": [],
      "stateMutability": "nonpayable",
      "type": "function"
    }
  ],
  "bytecode": "0x608060405234801561001057600080fd5b506100596040518060400160405280601981526020017f57656c636f6d6520746f206d7920776176652d706f7274616c0000000000000081525061005e60201b6101f61760201c565b6101e1565b6100fa81604051602401610072919061015f565b6040516020818303038152906040527f41304fac000000000000000000000000000000000000000000000000000000007bffffffffffffffffffffffffffffffffffffffffffffffffffffffff19166020820180517bffffffffffffffffffffffffffffffffffffffffffffffffffffffff83818316178352505050506100fd60201b60201c565b50565b60008151905060006a636f6e736f6c652e6c6f679050602083016000808483855afa5050505050565b600061013182610181565b61013b818561018c565b935061014b81856020860161019d565b610154816101d0565b840191505092915050565b600060208201905081810360008301526101798184610126565b905092915050565b600081519050919050565b600082825260208201905092915050565b60005b838110156101bb5780820151818401526020810190506101a0565b838111156101ca576000848401525b50505050565b6000601f19601f8301169050919050565b6108fa806101f06000396000f3fe608060405234801561001057600080fd5b50600436106100415760003560e01c8063291bcab314610046578063449d46c0146100645780639a2cdc0814610080575b600080fd5b61004e61009e565b60405161005b919061063e565b60405180910390f35b61007e60048036038101906100799190610501565b6100a4565b005b6100886101ab565b604051610095919061063e565b60405180910390f35b60015481565b600180546100b291906106cb565b600181905550600060405180606001604052803373ffffffffffffffffffffffffffffffffffffffff16815260200183815260200142815250908060018154018082558091505060019003906000526020600020906003020160009091909190915060008201518160000160006101000a81548173ffffffffffffffffffffffffffffffffffffffff021916908373ffffffffffffffffffffffffffffffffffffffff16021790555060208201518160010190805190602001906101779291906103f6565b506040820151816002015550506101a86040518060600160405280602481526020016108a16024913933428461028f565b50565b60006101ee6040518060400160405280601781526020017f5765206861766520256420746f74616c20776176657321000000000000000000815250600154610331565b600154905090565b61028c8160405160240161020a9190610599565b6040516020818303038152906040527f41304fac000000000000000000000000000000000000000000000000000000007bffffffffffffffffffffffffffffffffffffffffffffffffffffffff19166020820180517bffffffffffffffffffffffffffffffffffffffffffffffffffffffff83818316178352505050506103cd565b50565b61032b848484846040516024016102a994939291906105bb565b6040516020818303038152906040527f4c55f234000000000000000000000000000000000000000000000000000000007bffffffffffffffffffffffffffffffffffffffffffffffffffffffff19166020820180517bffffffffffffffffffffffffffffffffffffffffffffffffffffffff83818316178352505050506103cd565b50505050565b6103c9828260405160240161034792919061060e565b6040516020818303038152906040527f9710a9d0000000000000000000000000000000000000000000000000000000007bffffffffffffffffffffffffffffffffffffffffffffffffffffffff19166020820180517bffffffffffffffffffffffffffffffffffffffffffffffffffffffff83818316178352505050506103cd565b5050565b60008151905060006a636f6e736f6c652e6c6f679050602083016000808483855afa5050505050565b8280546104029061079f565b90600052602060002090601f016020900481019282610424576000855561046b565b82601f1061043d57805160ff191683800117855561046b565b8280016001018555821561046b579182015b8281111561046a57825182559160200191906001019061044f565b5b509050610478919061047c565b5090565b5b8082111561049557600081600090555060010161047d565b5090565b60006104ac6104a78461067e565b610659565b9050828152602081018484840111156104c457600080fd5b6104cf84828561075d565b509392505050565b600082601f8301126104e857600080fd5b81356104f8848260208601610499565b91505092915050565b60006020828403121561051357600080fd5b600082013567ffffffffffffffff81111561052d57600080fd5b610539848285016104d7565b91505092915050565b61054b81610721565b82525050565b600061055c826106af565b61056681856106ba565b935061057681856020860161076c565b61057f8161088f565b840191505092915050565b61059381610753565b82525050565b600060208201905081810360008301526105b38184610551565b905092915050565b600060808201905081810360008301526105d58187610551565b90506105e46020830186610542565b6105f1604083018561058a565b81810360608301526106038184610551565b905095945050505050565b600060408201905081810360008301526106288185610551565b9050610637602083018461058a565b9392505050565b6000602082019050610653600083018461058a565b92915050565b6000610663610674565b905061066f82826107d1565b919050565b6000604051905090565b600067ffffffffffffffff82111561069957610698610860565b5b6106a28261088f565b9050602081019050919050565b600081519050919050565b600082825260208201905092915050565b60006106d682610753565b91506106e183610753565b9250827fffffffffffffffffffffffffffffffffffffffffffffffffffffffffffffffff0382111561071657610715610802565b5b828201905092915050565b600061072c82610733565b9050919050565b600073ffffffffffffffffffffffffffffffffffffffff82169050919050565b6000819050919050565b82818337600083830152505050565b60005b8381101561078a57808201518184015260208101905061076f565b83811115610799576000848401525b50505050565b600060028204905060018216806107b757607f821691505b602082108114156107cb576107ca610831565b5b50919050565b6107da8261088f565b810181811067ffffffffffffffff821117156107f9576107f8610860565b5b80604052505050565b7f4e487b7100000000000000000000000000000000000000000000000000000000600052601160045260246000fd5b7f4e487b7100000000000000000000000000000000000000000000000000000000600052602260045260246000fd5b7f4e487b7100000000000000000000000000000000000000000000000000000000600052604160045260246000fd5b6000601f19601f830116905091905056fe25732068617320776176656420617420256420776974682061206d657373616765202573a2646970667358221220a95b699030b6c0251a457d2eb01b52dfd6b6b0bf4286ed87b57ed5712c0de9cf64736f6c63430008040033",
  "linkReferences": {},
  "deployedLinkReferences": {}
}