{
  "_format": "hh-sol-artifact-1",
  "contractName": "WavePortal",
  "sourceName": "contracts/WavePortal.sol",
  "abi": [
    {
      "inputs": [],
      "stateMutability": "payable",
      "type": "constructor"
    },
    {
      "anonymous": false,
      "inputs": [
        {
          "indexed": true,
          "internalType": "address",
          "name": "from",
          "type": "address"
        },
        {
          "indexed": false,
          "internalType": "uint256",
          "name": "timestamp",
          "type": "uint256"
        },
        {
          "indexed": false,
          "internalType": "string",
          "name": "message",
          "type": "string"
        }
      ],
      "name": "newWave",
      "type": "event"
    },
    {
      "inputs": [],
      "name": "getAllWaves",
      "outputs": [
        {
          "components": [
            {
              "internalType": "address",
              "name": "sender",
              "type": "address"
            },
            {
              "internalType": "string",
              "name": "message",
              "type": "string"
            },
            {
              "internalType": "uint256",
              "name": "time",
              "type": "uint256"
            }
          ],
          "internalType": "struct WavePortal.Wave[]",
          "name": "",
          "type": "tuple[]"
        }
      ],
      "stateMutability": "view",
      "type": "function"
    },
    {
      "inputs": [],
      "name": "getTotalWaves",
      "outputs": [
        {
          "internalType": "uint256",
          "name": "",
          "type": "uint256"
        }
      ],
      "stateMutability": "view",
      "type": "function"
    },
    {
      "inputs": [
        {
          "internalType": "address",
          "name": "",
          "type": "address"
        }
      ],
      "name": "lastWavedAt",
      "outputs": [
        {
          "internalType": "uint256",
          "name": "",
          "type": "uint256"
        }
      ],
      "stateMutability": "view",
      "type": "function"
    },
    {
      "inputs": [],
      "name": "totalWaves",
      "outputs": [
        {
          "internalType": "uint256",
          "name": "",
          "type": "uint256"
        }
      ],
      "stateMutability": "view",
      "type": "function"
    },
    {
      "inputs": [
        {
          "internalType": "string",
          "name": "message",
          "type": "string"
        }
      ],
      "name": "wave",
      "outputs": [],
      "stateMutability": "nonpayable",
      "type": "function"
    }
  ],
  "bytecode": "0x60806040526200004f6040518060400160405280601981526020017f57656c636f6d6520746f206d7920776176652d706f7274616c000000000000008152506200007760201b620006991760201c565b606444426200005f9190620001c4565b6200006b919062000261565b60018190555062000308565b62000117816040516024016200008e919062000184565b6040516020818303038152906040527f41304fac000000000000000000000000000000000000000000000000000000007bffffffffffffffffffffffffffffffffffffffffffffffffffffffff19166020820180517bffffffffffffffffffffffffffffffffffffffffffffffffffffffff83818316178352505050506200011a60201b60201c565b50565b60008151905060006a636f6e736f6c652e6c6f679050602083016000808483855afa5050505050565b60006200015082620001a8565b6200015c8185620001b3565b93506200016e8185602086016200022b565b6200017981620002f7565b840191505092915050565b60006020820190508181036000830152620001a0818462000143565b905092915050565b600081519050919050565b600082825260208201905092915050565b6000620001d18262000221565b9150620001de8362000221565b9250827fffffffffffffffffffffffffffffffffffffffffffffffffffffffffffffffff0382111562000216576200021562000299565b5b828201905092915050565b6000819050919050565b60005b838110156200024b5780820151818401526020810190506200022e565b838111156200025b576000848401525b50505050565b60006200026e8262000221565b91506200027b8362000221565b9250826200028e576200028d620002c8565b5b828206905092915050565b7f4e487b7100000000000000000000000000000000000000000000000000000000600052601160045260246000fd5b7f4e487b7100000000000000000000000000000000000000000000000000000000600052601260045260246000fd5b6000601f19601f8301169050919050565b61129a80620003186000396000f3fe608060405234801561001057600080fd5b50600436106100575760003560e01c8063291bcab31461005c578063449d46c01461007a5780639a2cdc0814610096578063a42a4663146100b4578063bd43a908146100e4575b600080fd5b610064610102565b6040516100719190610e3e565b60405180910390f35b610094600480360381019061008f9190610a7e565b610108565b005b61009e6104e5565b6040516100ab9190610e3e565b60405180910390f35b6100ce60048036038101906100c99190610a55565b610530565b6040516100db9190610e3e565b60405180910390f35b6100ec610548565b6040516100f99190610ce7565b60405180910390f35b60005481565b42610384600360003373ffffffffffffffffffffffffffffffffffffffff1673ffffffffffffffffffffffffffffffffffffffff168152602001908152602001600020546101569190610f50565b10610196576040517f08c379a000000000000000000000000000000000000000000000000000000000815260040161018d90610dfe565b60405180910390fd5b42600360003373ffffffffffffffffffffffffffffffffffffffff1673ffffffffffffffffffffffffffffffffffffffff1681526020019081526020016000208190555060016000546101e99190610f50565b600081905550600260405180606001604052803373ffffffffffffffffffffffffffffffffffffffff16815260200183815260200142815250908060018154018082558091505060019003906000526020600020906003020160009091909190915060008201518160000160006101000a81548173ffffffffffffffffffffffffffffffffffffffff021916908373ffffffffffffffffffffffffffffffffffffffff16021790555060208201518160010190805190602001906102ae929190610935565b506040820151816002015550506102df60405180606001604052806024815260200161124160249139334284610732565b606460015442446102f09190610f50565b6102fa9190610f50565b6103049190611087565b60018190555061034b6040518060400160405280601681526020017f52616e646f6d20232067656e6572617465643a202564000000000000000000008152506001546107d4565b60326001541015610492576103956040518060400160405280600781526020017f257320776f6e210000000000000000000000000000000000000000000000000081525033610870565b6000655af3107a40009050478111156103e3576040517f08c379a00000000000000000000000000000000000000000000000000000000081526004016103da90610e1e565b60405180910390fd5b60003373ffffffffffffffffffffffffffffffffffffffff168260405161040990610cd2565b60006040518083038185875af1925050503d8060008114610446576040519150601f19603f3d011682016040523d82523d6000602084013e61044b565b606091505b505090508061048f576040517f08c379a000000000000000000000000000000000000000000000000000000000815260040161048690610dde565b60405180910390fd5b50505b3373ffffffffffffffffffffffffffffffffffffffff167f827fc0b1433d32e3710239670a4c525416496a64d64f2374a5e4ea595c0738c642836040516104da929190610e59565b60405180910390a250565b60006105286040518060400160405280601781526020017f5765206861766520256420746f74616c207761766573210000000000000000008152506000546107d4565b600054905090565b60036020528060005260406000206000915090505481565b60606002805480602002602001604051908101604052809291908181526020016000905b8282101561069057838290600052602060002090600302016040518060600160405290816000820160009054906101000a900473ffffffffffffffffffffffffffffffffffffffff1673ffffffffffffffffffffffffffffffffffffffff1673ffffffffffffffffffffffffffffffffffffffff1681526020016001820180546105f590611024565b80601f016020809104026020016040519081016040528092919081815260200182805461062190611024565b801561066e5780601f106106435761010080835404028352916020019161066e565b820191906000526020600020905b81548152906001019060200180831161065157829003601f168201915b505050505081526020016002820154815250508152602001906001019061056c565b50505050905090565b61072f816040516024016106ad9190610d09565b6040516020818303038152906040527f41304fac000000000000000000000000000000000000000000000000000000007bffffffffffffffffffffffffffffffffffffffffffffffffffffffff19166020820180517bffffffffffffffffffffffffffffffffffffffffffffffffffffffff838183161783525050505061090c565b50565b6107ce8484848460405160240161074c9493929190610d5b565b6040516020818303038152906040527f4c55f234000000000000000000000000000000000000000000000000000000007bffffffffffffffffffffffffffffffffffffffffffffffffffffffff19166020820180517bffffffffffffffffffffffffffffffffffffffffffffffffffffffff838183161783525050505061090c565b50505050565b61086c82826040516024016107ea929190610dae565b6040516020818303038152906040527f9710a9d0000000000000000000000000000000000000000000000000000000007bffffffffffffffffffffffffffffffffffffffffffffffffffffffff19166020820180517bffffffffffffffffffffffffffffffffffffffffffffffffffffffff838183161783525050505061090c565b5050565b6109088282604051602401610886929190610d2b565b6040516020818303038152906040527f319af333000000000000000000000000000000000000000000000000000000007bffffffffffffffffffffffffffffffffffffffffffffffffffffffff19166020820180517bffffffffffffffffffffffffffffffffffffffffffffffffffffffff838183161783525050505061090c565b5050565b60008151905060006a636f6e736f6c652e6c6f679050602083016000808483855afa5050505050565b82805461094190611024565b90600052602060002090601f01602090048101928261096357600085556109aa565b82601f1061097c57805160ff19168380011785556109aa565b828001600101855582156109aa579182015b828111156109a957825182559160200191906001019061098e565b5b5090506109b791906109bb565b5090565b5b808211156109d45760008160009055506001016109bc565b5090565b60006109eb6109e684610eae565b610e89565b905082815260208101848484011115610a0357600080fd5b610a0e848285610fe2565b509392505050565b600081359050610a2581611229565b92915050565b600082601f830112610a3c57600080fd5b8135610a4c8482602086016109d8565b91505092915050565b600060208284031215610a6757600080fd5b6000610a7584828501610a16565b91505092915050565b600060208284031215610a9057600080fd5b600082013567ffffffffffffffff811115610aaa57600080fd5b610ab684828501610a2b565b91505092915050565b6000610acb8383610c64565b905092915050565b610adc81610fa6565b82525050565b610aeb81610fa6565b82525050565b6000610afc82610eef565b610b068185610f12565b935083602082028501610b1885610edf565b8060005b85811015610b545784840389528151610b358582610abf565b9450610b4083610f05565b925060208a01995050600181019050610b1c565b50829750879550505050505092915050565b6000610b7182610efa565b610b7b8185610f2e565b9350610b8b818560208601610ff1565b610b9481611174565b840191505092915050565b6000610baa82610efa565b610bb48185610f3f565b9350610bc4818560208601610ff1565b610bcd81611174565b840191505092915050565b6000610be5601483610f3f565b9150610bf082611185565b602082019050919050565b6000610c08601083610f3f565b9150610c13826111ae565b602082019050919050565b6000610c2b600083610f23565b9150610c36826111d7565b600082019050919050565b6000610c4e603383610f3f565b9150610c59826111da565b604082019050919050565b6000606083016000830151610c7c6000860182610ad3565b5060208301518482036020860152610c948282610b66565b9150506040830151610ca96040860182610cb4565b508091505092915050565b610cbd81610fd8565b82525050565b610ccc81610fd8565b82525050565b6000610cdd82610c1e565b9150819050919050565b60006020820190508181036000830152610d018184610af1565b905092915050565b60006020820190508181036000830152610d238184610b9f565b905092915050565b60006040820190508181036000830152610d458185610b9f565b9050610d546020830184610ae2565b9392505050565b60006080820190508181036000830152610d758187610b9f565b9050610d846020830186610ae2565b610d916040830185610cc3565b8181036060830152610da38184610b9f565b905095945050505050565b60006040820190508181036000830152610dc88185610b9f565b9050610dd76020830184610cc3565b9392505050565b60006020820190508181036000830152610df781610bd8565b9050919050565b60006020820190508181036000830152610e1781610bfb565b9050919050565b60006020820190508181036000830152610e3781610c41565b9050919050565b6000602082019050610e536000830184610cc3565b92915050565b6000604082019050610e6e6000830185610cc3565b8181036020830152610e808184610b9f565b90509392505050565b6000610e93610ea4565b9050610e9f8282611056565b919050565b6000604051905090565b600067ffffffffffffffff821115610ec957610ec8611145565b5b610ed282611174565b9050602081019050919050565b6000819050602082019050919050565b600081519050919050565b600081519050919050565b6000602082019050919050565b600082825260208201905092915050565b600081905092915050565b600082825260208201905092915050565b600082825260208201905092915050565b6000610f5b82610fd8565b9150610f6683610fd8565b9250827fffffffffffffffffffffffffffffffffffffffffffffffffffffffffffffffff03821115610f9b57610f9a6110b8565b5b828201905092915050565b6000610fb182610fb8565b9050919050565b600073ffffffffffffffffffffffffffffffffffffffff82169050919050565b6000819050919050565b82818337600083830152505050565b60005b8381101561100f578082015181840152602081019050610ff4565b8381111561101e576000848401525b50505050565b6000600282049050600182168061103c57607f821691505b602082108114156110505761104f611116565b5b50919050565b61105f82611174565b810181811067ffffffffffffffff8211171561107e5761107d611145565b5b80604052505050565b600061109282610fd8565b915061109d83610fd8565b9250826110ad576110ac6110e7565b5b828206905092915050565b7f4e487b7100000000000000000000000000000000000000000000000000000000600052601160045260246000fd5b7f4e487b7100000000000000000000000000000000000000000000000000000000600052601260045260246000fd5b7f4e487b7100000000000000000000000000000000000000000000000000000000600052602260045260246000fd5b7f4e487b7100000000000000000000000000000000000000000000000000000000600052604160045260246000fd5b6000601f19601f8301169050919050565b7f4661696c656420746f2073656e64204574686572000000000000000000000000600082015250565b7f5761697420666f72203135206d696e7300000000000000000000000000000000600082015250565b50565b7f547279696e6720746f207769746864726177206d6f7265206d6f6e657920746860008201527f616e2074686520636f6e74726163742068617300000000000000000000000000602082015250565b61123281610fa6565b811461123d57600080fd5b5056fe25732068617320776176656420617420256420776974682061206d657373616765202573a2646970667358221220e7c8b4d9439bbd8c20ec170da61c3153a02499d543202f9409c073cb874b1f8364736f6c63430008040033",
  "linkReferences": {},
  "deployedLinkReferences": {}
}