{
    "_format": "hh-sol-artifact-1",
    "contractName": "WavePortal",
    "sourceName": "contracts/WavePortal.sol",
    "abi": [
        {
            "inputs": [],
            "stateMutability": "nonpayable",
            "type": "constructor"
        },
        {
            "inputs": [],
            "name": "getTotalWaves",
            "outputs": [
                {
                    "internalType": "uint256",
                    "name": "",
                    "type": "uint256"
                }
            ],
            "stateMutability": "view",
            "type": "function"
        },
        {
            "inputs": [],
            "name": "totalWaves",
            "outputs": [
                {
                    "internalType": "uint256",
                    "name": "",
                    "type": "uint256"
                }
            ],
            "stateMutability": "view",
            "type": "function"
        },
        {
            "inputs": [],
            "name": "wave",
            "outputs": [],
            "stateMutability": "nonpayable",
            "type": "function"
        }
    ],
    "bytecode": "0x608060405234801561001057600080fd5b506100596040518060400160405280601981526020017f57656c636f6d6520746f206d7920776176652d706f7274616c0000000000000081525061005e60201b6101331760201c565b6101e1565b6100fa81604051602401610072919061015f565b6040516020818303038152906040527f41304fac000000000000000000000000000000000000000000000000000000007bffffffffffffffffffffffffffffffffffffffffffffffffffffffff19166020820180517bffffffffffffffffffffffffffffffffffffffffffffffffffffffff83818316178352505050506100fd60201b60201c565b50565b60008151905060006a636f6e736f6c652e6c6f679050602083016000808483855afa5050505050565b600061013182610181565b61013b818561018c565b935061014b81856020860161019d565b610154816101d0565b840191505092915050565b600060208201905081810360008301526101798184610126565b905092915050565b600081519050919050565b600082825260208201905092915050565b60005b838110156101bb5780820151818401526020810190506101a0565b838111156101ca576000848401525b50505050565b6000601f19601f8301169050919050565b610578806101f06000396000f3fe608060405234801561001057600080fd5b50600436106100415760003560e01c8063291bcab3146100465780636fe15b44146100645780639a2cdc081461006e575b600080fd5b61004e61008c565b60405161005b9190610406565b60405180910390f35b61006c610092565b005b6100766100e8565b6040516100839190610406565b60405180910390f35b60005481565b60016000546100a1919061043d565b6000819055506100e66040518060400160405280600c81526020017f2573206861732077617665640000000000000000000000000000000000000000815250336101cc565b565b600061012b6040518060400160405280601781526020017f5765206861766520256420746f74616c20776176657321000000000000000000815250600054610268565b600054905090565b6101c9816040516024016101479190610384565b6040516020818303038152906040527f41304fac000000000000000000000000000000000000000000000000000000007bffffffffffffffffffffffffffffffffffffffffffffffffffffffff19166020820180517bffffffffffffffffffffffffffffffffffffffffffffffffffffffff8381831617835250505050610304565b50565b61026482826040516024016101e29291906103a6565b6040516020818303038152906040527f319af333000000000000000000000000000000000000000000000000000000007bffffffffffffffffffffffffffffffffffffffffffffffffffffffff19166020820180517bffffffffffffffffffffffffffffffffffffffffffffffffffffffff8381831617835250505050610304565b5050565b610300828260405160240161027e9291906103d6565b6040516020818303038152906040527f9710a9d0000000000000000000000000000000000000000000000000000000007bffffffffffffffffffffffffffffffffffffffffffffffffffffffff19166020820180517bffffffffffffffffffffffffffffffffffffffffffffffffffffffff8381831617835250505050610304565b5050565b60008151905060006a636f6e736f6c652e6c6f679050602083016000808483855afa5050505050565b61033681610493565b82525050565b600061034782610421565b610351818561042c565b93506103618185602086016104cf565b61036a81610531565b840191505092915050565b61037e816104c5565b82525050565b6000602082019050818103600083015261039e818461033c565b905092915050565b600060408201905081810360008301526103c0818561033c565b90506103cf602083018461032d565b9392505050565b600060408201905081810360008301526103f0818561033c565b90506103ff6020830184610375565b9392505050565b600060208201905061041b6000830184610375565b92915050565b600081519050919050565b600082825260208201905092915050565b6000610448826104c5565b9150610453836104c5565b9250827fffffffffffffffffffffffffffffffffffffffffffffffffffffffffffffffff0382111561048857610487610502565b5b828201905092915050565b600061049e826104a5565b9050919050565b600073ffffffffffffffffffffffffffffffffffffffff82169050919050565b6000819050919050565b60005b838110156104ed5780820151818401526020810190506104d2565b838111156104fc576000848401525b50505050565b7f4e487b7100000000000000000000000000000000000000000000000000000000600052601160045260246000fd5b6000601f19601f830116905091905056fea2646970667358221220f0907a7729a27bd8315061c2168b10a395801271b5c4c441d48a2732e8e186e364736f6c63430008040033",
    "linkReferences": {},
    "deployedLinkReferences": {}
}