{
  "_format": "hh-sol-artifact-1",
  "contractName": "WavePortal",
  "sourceName": "contracts/WavePortal.sol",
  "abi": [
    {
      "inputs": [],
      "stateMutability": "nonpayable",
      "type": "constructor"
    },
    {
      "anonymous": false,
      "inputs": [
        {
          "indexed": true,
          "internalType": "address",
          "name": "from",
          "type": "address"
        },
        {
          "indexed": false,
          "internalType": "uint256",
          "name": "timestamp",
          "type": "uint256"
        },
        {
          "indexed": false,
          "internalType": "string",
          "name": "message",
          "type": "string"
        }
      ],
      "name": "newWave",
      "type": "event"
    },
    {
      "inputs": [],
      "name": "getAllWaves",
      "outputs": [
        {
          "components": [
            {
              "internalType": "address",
              "name": "sender",
              "type": "address"
            },
            {
              "internalType": "string",
              "name": "message",
              "type": "string"
            },
            {
              "internalType": "uint256",
              "name": "time",
              "type": "uint256"
            }
          ],
          "internalType": "struct WavePortal.Wave[]",
          "name": "",
          "type": "tuple[]"
        }
      ],
      "stateMutability": "view",
      "type": "function"
    },
    {
      "inputs": [],
      "name": "getTotalWaves",
      "outputs": [
        {
          "internalType": "uint256",
          "name": "",
          "type": "uint256"
        }
      ],
      "stateMutability": "view",
      "type": "function"
    },
    {
      "inputs": [],
      "name": "totalWaves",
      "outputs": [
        {
          "internalType": "uint256",
          "name": "",
          "type": "uint256"
        }
      ],
      "stateMutability": "view",
      "type": "function"
    },
    {
      "inputs": [
        {
          "internalType": "string",
          "name": "message",
          "type": "string"
        }
      ],
      "name": "wave",
      "outputs": [],
      "stateMutability": "nonpayable",
      "type": "function"
    }
  ],
  "bytecode": "0x60806040523480156200001157600080fd5b506200005d6040518060400160405280601981526020017f57656c636f6d6520746f206d7920776176652d706f7274616c000000000000008152506200006360201b620003c11760201c565b620001f7565b62000103816040516024016200007a919062000170565b6040516020818303038152906040527f41304fac000000000000000000000000000000000000000000000000000000007bffffffffffffffffffffffffffffffffffffffffffffffffffffffff19166020820180517bffffffffffffffffffffffffffffffffffffffffffffffffffffffff83818316178352505050506200010660201b60201c565b50565b60008151905060006a636f6e736f6c652e6c6f679050602083016000808483855afa5050505050565b60006200013c8262000194565b6200014881856200019f565b93506200015a818560208601620001b0565b6200016581620001e6565b840191505092915050565b600060208201905081810360008301526200018c81846200012f565b905092915050565b600081519050919050565b600082825260208201905092915050565b60005b83811015620001d0578082015181840152602081019050620001b3565b83811115620001e0576000848401525b50505050565b6000601f19601f8301169050919050565b610c9180620002076000396000f3fe608060405234801561001057600080fd5b506004361061004c5760003560e01c8063291bcab314610051578063449d46c01461006f5780639a2cdc081461008b578063bd43a908146100a9575b600080fd5b6100596100c7565b604051610066919061095b565b60405180910390f35b610089600480360381019061008491906106cc565b6100cd565b005b610093610225565b6040516100a0919061095b565b60405180910390f35b6100b1610270565b6040516100be9190610894565b60405180910390f35b60005481565b60016000546100dc9190610a62565b600081905550600160405180606001604052803373ffffffffffffffffffffffffffffffffffffffff16815260200183815260200142815250908060018154018082558091505060019003906000526020600020906003020160009091909190915060008201518160000160006101000a81548173ffffffffffffffffffffffffffffffffffffffff021916908373ffffffffffffffffffffffffffffffffffffffff16021790555060208201518160010190805190602001906101a19291906105c1565b506040820151816002015550506101d2604051806060016040528060248152602001610c386024913933428461045a565b3373ffffffffffffffffffffffffffffffffffffffff167f827fc0b1433d32e3710239670a4c525416496a64d64f2374a5e4ea595c0738c6428360405161021a929190610976565b60405180910390a250565b60006102686040518060400160405280601781526020017f5765206861766520256420746f74616c207761766573210000000000000000008152506000546104fc565b600054905090565b60606001805480602002602001604051908101604052809291908181526020016000905b828210156103b857838290600052602060002090600302016040518060600160405290816000820160009054906101000a900473ffffffffffffffffffffffffffffffffffffffff1673ffffffffffffffffffffffffffffffffffffffff1673ffffffffffffffffffffffffffffffffffffffff16815260200160018201805461031d90610b36565b80601f016020809104026020016040519081016040528092919081815260200182805461034990610b36565b80156103965780601f1061036b57610100808354040283529160200191610396565b820191906000526020600020905b81548152906001019060200180831161037957829003601f168201915b5050505050815260200160028201548152505081526020019060010190610294565b50505050905090565b610457816040516024016103d591906108b6565b6040516020818303038152906040527f41304fac000000000000000000000000000000000000000000000000000000007bffffffffffffffffffffffffffffffffffffffffffffffffffffffff19166020820180517bffffffffffffffffffffffffffffffffffffffffffffffffffffffff8381831617835250505050610598565b50565b6104f68484848460405160240161047494939291906108d8565b6040516020818303038152906040527f4c55f234000000000000000000000000000000000000000000000000000000007bffffffffffffffffffffffffffffffffffffffffffffffffffffffff19166020820180517bffffffffffffffffffffffffffffffffffffffffffffffffffffffff8381831617835250505050610598565b50505050565b610594828260405160240161051292919061092b565b6040516020818303038152906040527f9710a9d0000000000000000000000000000000000000000000000000000000007bffffffffffffffffffffffffffffffffffffffffffffffffffffffff19166020820180517bffffffffffffffffffffffffffffffffffffffffffffffffffffffff8381831617835250505050610598565b5050565b60008151905060006a636f6e736f6c652e6c6f679050602083016000808483855afa5050505050565b8280546105cd90610b36565b90600052602060002090601f0160209004810192826105ef5760008555610636565b82601f1061060857805160ff1916838001178555610636565b82800160010185558215610636579182015b8281111561063557825182559160200191906001019061061a565b5b5090506106439190610647565b5090565b5b80821115610660576000816000905550600101610648565b5090565b6000610677610672846109cb565b6109a6565b90508281526020810184848401111561068f57600080fd5b61069a848285610af4565b509392505050565b600082601f8301126106b357600080fd5b81356106c3848260208601610664565b91505092915050565b6000602082840312156106de57600080fd5b600082013567ffffffffffffffff8111156106f857600080fd5b610704848285016106a2565b91505092915050565b60006107198383610826565b905092915050565b61072a81610ab8565b82525050565b61073981610ab8565b82525050565b600061074a82610a0c565b6107548185610a2f565b935083602082028501610766856109fc565b8060005b858110156107a25784840389528151610783858261070d565b945061078e83610a22565b925060208a0199505060018101905061076a565b50829750879550505050505092915050565b60006107bf82610a17565b6107c98185610a40565b93506107d9818560208601610b03565b6107e281610c26565b840191505092915050565b60006107f882610a17565b6108028185610a51565b9350610812818560208601610b03565b61081b81610c26565b840191505092915050565b600060608301600083015161083e6000860182610721565b506020830151848203602086015261085682826107b4565b915050604083015161086b6040860182610876565b508091505092915050565b61087f81610aea565b82525050565b61088e81610aea565b82525050565b600060208201905081810360008301526108ae818461073f565b905092915050565b600060208201905081810360008301526108d081846107ed565b905092915050565b600060808201905081810360008301526108f281876107ed565b90506109016020830186610730565b61090e6040830185610885565b818103606083015261092081846107ed565b905095945050505050565b6000604082019050818103600083015261094581856107ed565b90506109546020830184610885565b9392505050565b60006020820190506109706000830184610885565b92915050565b600060408201905061098b6000830185610885565b818103602083015261099d81846107ed565b90509392505050565b60006109b06109c1565b90506109bc8282610b68565b919050565b6000604051905090565b600067ffffffffffffffff8211156109e6576109e5610bf7565b5b6109ef82610c26565b9050602081019050919050565b6000819050602082019050919050565b600081519050919050565b600081519050919050565b6000602082019050919050565b600082825260208201905092915050565b600082825260208201905092915050565b600082825260208201905092915050565b6000610a6d82610aea565b9150610a7883610aea565b9250827fffffffffffffffffffffffffffffffffffffffffffffffffffffffffffffffff03821115610aad57610aac610b99565b5b828201905092915050565b6000610ac382610aca565b9050919050565b600073ffffffffffffffffffffffffffffffffffffffff82169050919050565b6000819050919050565b82818337600083830152505050565b60005b83811015610b21578082015181840152602081019050610b06565b83811115610b30576000848401525b50505050565b60006002820490506001821680610b4e57607f821691505b60208210811415610b6257610b61610bc8565b5b50919050565b610b7182610c26565b810181811067ffffffffffffffff82111715610b9057610b8f610bf7565b5b80604052505050565b7f4e487b7100000000000000000000000000000000000000000000000000000000600052601160045260246000fd5b7f4e487b7100000000000000000000000000000000000000000000000000000000600052602260045260246000fd5b7f4e487b7100000000000000000000000000000000000000000000000000000000600052604160045260246000fd5b6000601f19601f830116905091905056fe25732068617320776176656420617420256420776974682061206d657373616765202573a2646970667358221220d5e8e277d2ad724e73ff60fcbf26d0ab325c563094411c2bb14d77afdf18a28e64736f6c63430008040033",
  "linkReferences": {},
  "deployedLinkReferences": {}
}